101 076401251 9876543212012312000000000000000A094101My Bank Name          Your Bank Name      
5200Your Company Name   987654321PPDPayroll      201231   10576401251                        1
627123456789012987654321      0000000500123DOE JOHN                           0764012510000001
627123456789013987654322      0000000750123SMITH JANE                         0764012510000002
820000000200987654321000000125012345678900000001250                           0764012510000001
5200Another Company Name  123456789CCDInvoices     201231   123456789                        2
627987654321098765432123      0000001000123DOE JANE                           1234567890000003
627987654321098765432124      0000001500123DOE JOHN                           1234567890000004
820000000200123456789000000250098765432100000002500                           1234567890000002
900000200000400000004000000003750987654321000000037500                                        
999999999999999999999999999999999999999999999999999999999999999999999999999                   
